:020000040800F2
:10000000304900209D0100084F0A0008D909000866
:100010004D0A000809020008BD0A0008000000009F
:10002000000000000000000000000000550A000869
:100030000B02000800000000510A0008590A0008DD
:10004000B7010008B7010008B7010008B7010008B0
:10005000B7010008B7010008B7010008B7010008A0
:10006000B7010008B7010008B7010008B701000890
:10007000B7010008B7010008B7010008B701000880
:10008000B7010008B7010008B7010008B701000870
:10009000B7010008B7010008B7010008B701000860
:1000A000B7010008B7010008B7010008B701000850
:1000B000B7010008B7010008B7010008B701000840
:1000C000B7010008B7010008B7010008B701000830
:1000D000B7010008B7010008B7010008B701000820
:1000E000B7010008B7010008B7010008DFF810D019
:1000F00000F078F800480047FD0A0008AFF30080E0
:1001000030490020224B19680868B0E8F00F80F3EE
:100110000988BFF36F8F4FF0000080F311884EF015
:100120000D0E70470000000006480068006880F36C
:10013000088862B661B6BFF34F8FBFF36F8F00DFE1
:1001400000BF00BF08ED00E0EFF30980BFF36F8F41
:100150000F4B1A6820E9F00F106008B54FF0BF0090
:1001600080F31188BFF34F8FBFF36F8F00F0A6FFAE
:100170004FF0000080F31188BDE808401968086856
:10018000B0E8F00F80F30988BFF36F8F704700BFAE
:100190002C000020EFF305807047000006488047E0
:1001A00006480047FEE7FEE7FEE7FEE7FEE7FEE75C
:1001B000FEE7FEE7FEE7FEE7BB0A0008ED000008E9
:1001C000D2B201E000F8012B491EFBD27047002299
:1001D000F6E710B513460A4604461946FFF7F0FF46
:1001E000204610BD064C074D06E0E06840F00103D4
:1001F00094E8070098471034AC42F6D3FFF77AFF33
:100200004013000860130008FEE770472DE9F84F1F
:10021000DFF8B8910024A9F1040B23460F2709F158
:10022000040AABF1040EC9E00125A5402A40AA4208
:100230007DD1674ED1F804C0ACEB0608B44532D08E
:1002400014DCBCF1030F3AD009DCBCF1000F2AD05A
:10025000BCF1010F1CD0BCF1020F31D11DE0BCF18B
:10026000110F17D0BCF1120F2AD119E0B8F5881F71
:1002700019D006DCB8F5803F15D0B8F5801F1FD126
:1002800011E0B8F5001F0ED0B8F5041F18D10AE030
:10029000CB6815E0CB681B1D12E0CB6808330FE07C
:1002A000CB680C330CE08B682BB1012B4FF00803AB
:1002B00003D0456104E0042302E0056100E000236F
:1002C000FF2A01D8064601E000F104064FEA840542
:1002D00001D9A5F12005D6F8008007FA05FC28EA27
:1002E0000C0803FA05F548EA0508C6F800804D68D1
:1002F000ED0062D5374DAE6946F00106AE61AD69DD
:1003000024F0030605F001050095334D06EB050CBE
:10031000DCF80850A607360F07FA06F825EA0805A4
:10032000DFF8B880404503D14FF0000817E044E003
:10033000DFF8AC80404502D14FF001080FE0DFF854
:10034000A480404502D14FF0020808E0DFF8988011
:10035000404502D14FF0030801E04FF0040808FACD
:1003600006F848EA0508CCF808804D68D9F800601E
:10037000ED024D4601D5164300E096432E604D68D0
:10038000DAF80060AD02554601D5164300E0964309
:100390002E604D68DBF80060AD035D4601D5164365
:1003A00000E096432E604D68DEF80060ED03754670
:1003B00001D5164300E096432E60641C0D682A4662
:1003C000E5407FF431AFBDE8F88F0000080401403C
:1003D0000000111000100240000001400008014020
:1003E000000C01400010014000140140C26821EAE5
:1003F00002030A4043EA0241016170470AB1016108
:1004000070470904FBE7000001488068704700005E
:1004100000000020074810B5016841F0100101609C
:10042000032000F067F80F2000F006F800F024F831
:10043000002010BD0020024070B50D4D04464FF461
:100440007A712878B1FBF0F00A490968B1FBF0F045
:1004500000F0AEFA48B9102C07D200222146501EF7
:1004600000F028F800206C6070BD012070BD000015
:10047000000000200C0000200C4808B5816941F004
:1004800001018161816901F001010091C16941F0BF
:100490008051C161C06900F08050009004484168FB
:1004A00021F0E06141F00071416008BD00100240A0
:1004B00000000140F0B40E4B1B680C46C3F302234E
:1004C000C3F10705042D00D90425191D072901D200
:1004D000002300E0DB1E012606FA05F1491E21403B
:1004E00099409E40761E16403143F0BC00F0E7BABA
:1004F0000CED00E0064900F0070208684FF6FF0324
:10050000184040EA0220034A104308607047000088
:100510000CED00E00000FA052DE9F0470F4605005C
:1005200061D0434E306800F00700B84209D230680D
:1005300020F0070038433060306800F00700B84210
:1005400051D128683B4C810712D5400703D560681C
:1005500040F4E06060602878000703D5606840F4EC
:10056000605060606068A96820F0F0000843606037
:100570002878C00728D06868012810D02168022890
:1005800010D0890700292EDA616821F003010143A8
:100590006160FFF739FF804641F288390DE021683C
:1005A0008903EFE78901EDE7FFF72EFFA0EB0801D4
:1005B000494502D90320BDE8F0876068696800F00A
:1005C0000C00B0EB810FEFD1306800F00700B842AB
:1005D0000BD9306820F0070038433060306800F0F5
:1005E0000700B84201D00120E5E72878400705D58B
:1005F0006068E96820F4E0600843606028780007DC
:1006000006D56068296920F4605040EAC100606046
:1006100000F018F86168084AC1F30311515CC84042
:100620000649086006480068FFF706FF0020C2E799
:1006300000200240001002402E1300080C00002091
:10064000040000200E4A51680E4801F00C03042BF0
:1006500011D0082B0FD10C48C1F38343C903C05CF0
:100660000AD55168084AC1F34041921E515C054ABF
:100670005043B0FBF1F07047044948437047000015
:100680000010024000127A001E13000800093D000D
:100690002DE9F84F040070D02078C04DC00749D034
:1006A0006868C0F38100012807D06868C0F3810042
:1006B000022809D16868C00306D52868800339D5A7
:1006C00060680028E7D035E06068B0F5803F0BD067
:1006D00010B1B0F5A02F11D0286820F48030286028
:1006E000286820F4802002E0286840F480302860E8
:1006F000606890B1FFF788FE06460AE0286840F47B
:1007000080202860F0E700BFFFF77EFE801B642892
:1007100073D828688003F7D50CE0FFF775FE06460E
:1007200005E000BFFFF770FE801B6428F0D8286842
:100730008003F7D420789A4E80074FF001094FF0DC
:10074000000839D5686810F00C0F07D06868C0F34E
:100750008100022809D16868C00306D42868800790
:1007600014D52069012808D110E02069B0B1C6F87D
:100770000090FFF749FE074605E00AE1FFF744FE57
:10078000C01B0228C4D828688007F7D5286861698B
:1007900020F0F80040EAC10028600DE0C6F80080B3
:1007A000FFF732FE074604E0FFF72EFEC01B0228CB
:1007B00023D828688007F7D4207800072CD57948FB
:1007C000A169D9B1C0F80090FFF71EFE074604E00A
:1007D000FFF71AFEC01B02280FD8686A8007F7D5FA
:1007E00071484FF4FA510068B0FBF1F0009000BF7F
:1007F0000098411E0091FAD20EE080E0C0F800801F
:10080000FFF702FE074604E0FFF7FEFDC01B0228CB
:1008100075D8686A8007F7D42078400760D5E86902
:100820000027C00008D4E86940F08050E861E8691A
:10083000012700F0805000905C480168C90513D47E
:100840000168834641F480710160FFF7DDFD824657
:1008500006E000BFFFF7D8FDA0EB0A0064284ED8E1
:10086000DBF80000C005F5D5E06801280AD008B122
:10087000052813D0286A20F001002862286A20F099
:10088000040002E0286A40F001002862E06841F2BA
:10089000883B98B1FFF7B8FD82460BE0286A40F02C
:1008A00004002862EEE700BFFFF7AEFDA0EB0A01EF
:1008B00059455AD8286A8007F6D50CE0FFF7A4FD01
:1008C000824605E0FFF7A0FDA0EB0A0159454CD890
:1008D000286A8007F6D41FB1E86920F08050E861EB
:1008E000E06988B36968C1F38101022944D0022814
:1008F000C6F8608004D0FFF787FD044638E034E096
:10090000FFF782FD074604E0FFF77EFDC01B0228CB
:100910002BD828688001F7D4206AB0F5803F05D134
:100920006868A16820F4003008436860D4E90801D1
:100930000843696821F4741108436860C6F8609040
:10094000FFF762FD044606E025E000BFFFF75CFD0F
:10095000001B022809D828688001F7D51BE000BFDA
:10096000FFF752FD001B022802D90320BDE8F88FD3
:1009700028688001F4D40EE00128F7D06868226A64
:1009800000F48031914204D1616A00F47010884211
:1009900001D00120EAE70020E8E700000010024053
:1009A00000004242800442420C00002000700040DF
:1009B00010B5401EB0F1807F01D3012010BD4FF073
:1009C000E02460610F21601700F079F80020A06139
:1009D00007202061002010BDFEE7000070B586B042
:1009E000002418480094019402940394816941F012
:1009F00010018161816901F010010491816941F068
:100A000020018161816901F020010491816941F037
:100A10000401816180690C4E00F004004FF4005520
:100A20000490002229463046FFF7E8FC012000959B
:100A3000CDE901040220039069463046FFF7E6FB4A
:100A400006B070BD0010024000100140FEE7FEE756
:100A5000FFF77ABBFFF756BB00F06ABB30B58FB02B
:100A600028216846FFF7B3FB14210AA8FFF7AFFB64
:100A700001210804CDE9001000240294022504910C
:100A8000CDE907504FF4E01009906846FFF700FEEB
:100A900008B172B6FEE70F20CDE90A054FF4806079
:100AA000CDE90C4002210AA80E94FFF735FD00287D
:100AB00001D072B6FEE70FB030BD7047FEE7090700
:100AC000090E002804DB00F1E02080F800147047D4
:100AD00000F00F0000F1E02080F8141D704702E0E4
:100AE00008C8121F08C1002AFAD1704770470020B9
:100AF00001E001C1121F002AFBD170471CB5FFF7AE
:100B000089FCFFF7ABFFFFF769FF00210120CDE96A
:100B100000010B46802203A1054800F01FFB00F0F6
:100B20009BFAFEE74C4544205461736B00000000C3
:100B3000091000082DE9F041184C0F460546E668FB
:100B40002068001D00F0DAF938B9206890F82C1000
:100B500001208840216981432161681C07D137B198
:100B60002168BDE8F0410E48091D00F0FFB920687A
:100B70003544B5424560216805D2A06BBDE8F0411F
:100B8000091D00F0DBB9606B091D00F0D7F9A06A00
:100B9000854200D2A562BDE8F08100002C00002053
:100BA0001C4500202DE9F041054600F0EBF92E4CE4
:100BB000A068401CA06020682C4F10B1606940B351
:100BC0002DE02560A068012829D1002606EB8600CB
:100BD00007EB800000F0A4F9761C052EF6D323481D
:100BE000643000F09DF92148783000F099F91F48F1
:100BF0008C3000F095F91D48A03000F091F91B48A9
:100C0000B43000F08DF91948643060631430A0638B
:100C100005E02068E96AC06A884200D82560606AF9
:100C2000401C6062E96A012022698840104320610B
:100C300001EB810007EB8000291D00F097F900F01F
:100C4000AFF9606900280CD02068E96AC06A884260
:100C500007D207494FF080500860BFF34F8FBFF3B2
:100C60006F8FBDE8F08100002C0000206844002058
:100C700004ED00E070B5114E114C17E000F016FACB
:100C80003068B8B100F0F0FA00F07CF9F068C5689F
:100C9000281D00F033F9A068401EA0606068401E67
:100CA000606000F07DF9284600F00CF860680028CC
:100CB000E4D170BD00F0D8FAF8E700000845002044
:100CC0002C00002010B50446006B00F073F920469C
:100CD000BDE8104000F06EB910484FF4884142075B
:100CE00006D0C01D0D4920F00700411AC1F588410A
:100CF0000B4A00230144C2E900030839103A21F0ED
:100D0000070111604B600B600B1AC0E90013936080
:100D10004FF000405360D060704700006800002032
:100D200020000020074C4FF08056074DFFF7A2FF30
:100D300020680128FAD92E60BFF34F8FBFF36F8F61
:100D4000F4E700006844002004ED00E02DE9F047DE
:100D50009A46DDE9096481466FF00303206B03EBDB
:100D600082021044089D20F00707002023180A5C27
:100D700083F834200A5C12B1401C1028F6D34FF0DF
:100D8000000884F84380052D00D30425201DE5626A
:100D900000F0D1F804F1180000F0CDF82461C5F19D
:100DA00005006462A061C4F8448084F8488052461B
:100DB0004946384600F090F82060002E00D034609C
:100DC000BDE8F08730B5114900E011460A6882425B
:100DD000FBD34B685C18844203D1406818444860D8
:100DE000084643681C18944209D1084C103C2468FA
:100DF000A24209D052681A4442600A68126802602E
:100E0000814200D0086030BD0460F9E72000002076
:100E10000648416B096829B1416BC968C9684968CE
:100E2000816270474FF0FF31FAE700002C0000208C
:100E3000BF2080F31188BFF34F8FBFF36F8FFEE7A2
:100E40002DE9F0410546002700F030F9214E3068C9
:100E500008B9FFF741FFF068054236D1ADB3083558
:100E6000680704D005F00700C0F10800054465B329
:100E70007068854229D81748103001460C6801E097
:100E800020460C466168A94202D221680029F7D1A8
:100E900031688C4219D007682168016060680837A2
:100EA000411B102904D9601941606560FFF78AFF72
:100EB00061687068401A7060B268904200D2B06099
:100EC000F06801430020C4E9000100F0CDF9384684
:100ED000BDE8F0811000002010B5031F4FF08074B2
:100EE0001C601B1F21F001011960191F024B0B60D0
:100EF000143940380A6010BD310E0008D0E90132C3
:100F000001699A60D0E901235A604A68824201D19E
:100F100082684A60002202610868401E08607047CB
:100F200000F108014FF0FF32C0E90112C160016118
:100F300000210160704700210161704730B50B68E6
:100F40005A1C02D000F1080202E0026904E02246C5
:100F5000546825689D42FAD953684B6099608A604D
:100F6000516008610168491C016030BD42684A60F7
:100F700093688B6093685960916008610168491CAF
:100F800001607047BF2080F31188BFF34F8FBFF31C
:100F90006F8F02480168491C0160704728000020DB
:100FA00003490868401E086001D180F3118870472A
:100FB0002800002070B5002818D00D4DA0F10804BD
:100FC0006068E968084211D02268002A0ED188437F
:100FD000606000F06BF860686968084468602046EB
:100FE000FFF7F0FEBDE8704000F03EB970BD0000B4
:100FF000100000204FF0E02002494161072101610B
:10100000704700003F190100064D4FF400544FF4A3
:10101000FA7621462846FFF7E9F9304600F004F851
:10102000F7E700000010014010B5020009D000F001
:101030003DF800211046FFF77DFD00F015F900286E
:1010400007D104494FF080500860BFF34F8FBFF3C2
:101050006F8F10BD04ED00E01CB510480024CDE9F1
:101060000040234680220EA10F4800F077F80128A7
:1010700012D1BF2080F31188BFF34F8FBFF36F8F62
:1010800006484FF0FF312C38816201214161C46074
:10109000BDE81C4000F034B81CBD00005800002022
:1010A00049444C4500000000250D00080248016B32
:1010B000491C0163704700002C0000200E48016BA2
:1010C00011B10121C16170470021C16101690B4A61
:1010D000B1FA81F1C1F11F0101EB810102EB810144
:1010E00001F108034A6852684A609A4201D1526885
:1010F0004A60D168016070472C00002068440020DD
:10110000094810B5016841F47F010160016841F0B0
:101110007F410160FFF76EFF044900200860FFF780
:1011200003F8002010BD000020ED00E028000020A2
:1011300010B5BF2080F31188BFF34F8FBFF36F8FBF
:1011400000F038F818B104494FF0805008600020D2
:1011500080F3118810BD000004ED00E02DE9FF5F71
:101160008346DDE90E87994616468A469000FFF7CA
:1011700067FE05001AD04C20FFF762FE040012D073
:1011800025630021CDE90241CDE900874B46324677
:1011900051465846FFF7DAFD2046FFF703FD0120D0
:1011A00004B0BDE8F09F2846FFF704FF4FF0FF3082
:1011B000F6E700002DE9F041294C0027206B40B1F3
:1011C000A069401CA061E06900B101273846BDE874
:1011D000F081E668761CE66008D1606BA16B616304
:1011E000A063206A401C2062FFF712FEA06ADFF8AD
:1011F0007480864209D3606B006880B1606BC06800
:10120000C568686886420DD2A0622068C06A00EB9B
:10121000800158F821000128D5D90127D3E74FF0E4
:10122000FF30F1E7281DFFF769FEA86A18B105F144
:101230001800FFF763FEE86A01212269814011432B
:10124000216100EB800108EB8100291DFFF78EFE74
:10125000E86A2168C96A8842CDD30127CBE700003C
:101260002C000020684400202DE9F0470024264689
:10127000FFF788FE264D286B401E2863286BE0BBD5
:10128000A968244F0120C1B3A7F18C0980463868B2
:10129000E8B1F868C46804F11800FFF72FFE201DBC
:1012A000FFF72CFEE06A2A6908FA00F11143296170
:1012B00000EB800109EB8100211DFFF757FEE06A7A
:1012C0002968C96A8842E2D3C5F81C80DFE70CB1FF
:1012D000FFF79EFDAC694CB14FEA0807FFF76AFFC4
:1012E00000B1EF61641EF9D10020A861E86920B166
:1012F000094901263007086000E003E0BFF34F8F83
:10130000BFF36F8FFFF74CFE3046BDE8F08700005B
:101310002C000020F444002004ED00E00102020350
:101320000405060708090A0B0C0D0E0F101000002B
:101330000000000000000102030406070809000085
:10134000601300080000002068000000DE0A0008AA
:10135000C813000868000020C8480000EE0A000812
:1013600001000000100000000000000000127A00E0
:10137000000000000000000000000000000000006D
:101380000000000000000000AAAAAAAA00000000B5
:10139000000000000000000000000000000000004D
:1013A000000000000000000000000000000000003D
:1013B000000000000000000000000000000000002D
:0813C000000000000000000025
:04000005080000ED02
:00000001FF
